{
  "contractName": "KYC",
  "abi": [
    {
      "constant": true,
      "inputs": [
        {
          "name": "",
          "type": "uint256"
        }
      ],
      "name": "allCustomerVotes",
      "outputs": [
        {
          "name": "senderBank",
          "type": "address"
        },
        {
          "name": "receiverCustomer",
          "type": "string"
        }
      ],
      "payable": false,
      "stateMutability": "view",
      "type": "function"
    },
    {
      "constant": true,
      "inputs": [
        {
          "name": "",
          "type": "uint256"
        }
      ],
      "name": "validKYCs",
      "outputs": [
        {
          "name": "uname",
          "type": "string"
        },
        {
          "name": "bankAddress",
          "type": "address"
        },
        {
          "name": "customerDataHash",
          "type": "string"
        },
        {
          "name": "isAllowed",
          "type": "bool"
        }
      ],
      "payable": false,
      "stateMutability": "view",
      "type": "function"
    },
    {
      "constant": true,
      "inputs": [
        {
          "name": "",
          "type": "address"
        }
      ],
      "name": "allBanks",
      "outputs": [
        {
          "name": "name",
          "type": "string"
        },
        {
          "name": "ethAddress",
          "type": "address"
        },
        {
          "name": "KYC_count",
          "type": "uint256"
        },
        {
          "name": "regNumber",
          "type": "string"
        },
        {
          "name": "rating",
          "type": "uint256"
        },
        {
          "name": "upvotes",
          "type": "uint256"
        }
      ],
      "payable": false,
      "stateMutability": "view",
      "type": "function"
    },
    {
      "constant": true,
      "inputs": [
        {
          "name": "",
          "type": "uint256"
        }
      ],
      "name": "allBankVotes",
      "outputs": [
        {
          "name": "senderBank",
          "type": "address"
        },
        {
          "name": "receiverBank",
          "type": "address"
        }
      ],
      "payable": false,
      "stateMutability": "view",
      "type": "function"
    },
    {
      "constant": true,
      "inputs": [
        {
          "name": "",
          "type": "uint256"
        }
      ],
      "name": "allRequests",
      "outputs": [
        {
          "name": "uname",
          "type": "string"
        },
        {
          "name": "bankAddress",
          "type": "address"
        },
        {
          "name": "customerDataHash",
          "type": "string"
        },
        {
          "name": "isAllowed",
          "type": "bool"
        }
      ],
      "payable": false,
      "stateMutability": "view",
      "type": "function"
    },
    {
      "constant": true,
      "inputs": [
        {
          "name": "",
          "type": "uint256"
        }
      ],
      "name": "allCustomers",
      "outputs": [
        {
          "name": "uname",
          "type": "string"
        },
        {
          "name": "dataHash",
          "type": "string"
        },
        {
          "name": "rating",
          "type": "uint256"
        },
        {
          "name": "upvotes",
          "type": "uint256"
        },
        {
          "name": "bank",
          "type": "address"
        },
        {
          "name": "password",
          "type": "string"
        }
      ],
      "payable": false,
      "stateMutability": "view",
      "type": "function"
    },
    {
      "inputs": [],
      "payable": false,
      "stateMutability": "nonpayable",
      "type": "constructor"
    },
    {
      "anonymous": false,
      "inputs": [
        {
          "indexed": false,
          "name": "uname",
          "type": "string"
        },
        {
          "indexed": false,
          "name": "bankAddress",
          "type": "address"
        },
        {
          "indexed": false,
          "name": "customerDataHash",
          "type": "string"
        },
        {
          "indexed": false,
          "name": "flag",
          "type": "bool"
        }
      ],
      "name": "printKYCRequests",
      "type": "event"
    },
    {
      "anonymous": false,
      "inputs": [
        {
          "indexed": false,
          "name": "name",
          "type": "string"
        },
        {
          "indexed": false,
          "name": "ethAddress",
          "type": "address"
        },
        {
          "indexed": false,
          "name": "KYC_count",
          "type": "uint256"
        },
        {
          "indexed": false,
          "name": "regNumber",
          "type": "string"
        },
        {
          "indexed": false,
          "name": "rating",
          "type": "uint256"
        }
      ],
      "name": "bankDetails",
      "type": "event"
    },
    {
      "constant": false,
      "inputs": [
        {
          "name": "name",
          "type": "string"
        },
        {
          "name": "bankAddress",
          "type": "address"
        },
        {
          "name": "bankRegNum",
          "type": "string"
        }
      ],
      "name": "addBank",
      "outputs": [
        {
          "name": "",
          "type": "bool"
        }
      ],
      "payable": true,
      "stateMutability": "payable",
      "type": "function"
    },
    {
      "constant": false,
      "inputs": [
        {
          "name": "bankAddress",
          "type": "address"
        }
      ],
      "name": "removeBank",
      "outputs": [
        {
          "name": "",
          "type": "bool"
        }
      ],
      "payable": true,
      "stateMutability": "payable",
      "type": "function"
    },
    {
      "constant": false,
      "inputs": [
        {
          "name": "Uname",
          "type": "string"
        },
        {
          "name": "customerDataHash",
          "type": "string"
        }
      ],
      "name": "addRequest",
      "outputs": [
        {
          "name": "",
          "type": "uint256"
        }
      ],
      "payable": true,
      "stateMutability": "payable",
      "type": "function"
    },
    {
      "constant": false,
      "inputs": [
        {
          "name": "Uname",
          "type": "string"
        },
        {
          "name": "customerDataHash",
          "type": "string"
        }
      ],
      "name": "removeRequest",
      "outputs": [
        {
          "name": "",
          "type": "int256"
        }
      ],
      "payable": true,
      "stateMutability": "payable",
      "type": "function"
    },
    {
      "constant": false,
      "inputs": [
        {
          "name": "Uname",
          "type": "string"
        },
        {
          "name": "bankAddress",
          "type": "address"
        },
        {
          "name": "customerDataHash",
          "type": "string"
        }
      ],
      "name": "addKYC",
      "outputs": [],
      "payable": true,
      "stateMutability": "payable",
      "type": "function"
    },
    {
      "constant": false,
      "inputs": [
        {
          "name": "Uname",
          "type": "string"
        }
      ],
      "name": "removeKYC",
      "outputs": [
        {
          "name": "",
          "type": "int256"
        }
      ],
      "payable": true,
      "stateMutability": "payable",
      "type": "function"
    },
    {
      "constant": false,
      "inputs": [
        {
          "name": "Uname",
          "type": "string"
        },
        {
          "name": "DataHash",
          "type": "string"
        }
      ],
      "name": "addCustomer",
      "outputs": [
        {
          "name": "",
          "type": "int256"
        }
      ],
      "payable": true,
      "stateMutability": "payable",
      "type": "function"
    },
    {
      "constant": false,
      "inputs": [
        {
          "name": "Uname",
          "type": "string"
        }
      ],
      "name": "removeCustomer",
      "outputs": [
        {
          "name": "",
          "type": "int256"
        }
      ],
      "payable": true,
      "stateMutability": "payable",
      "type": "function"
    },
    {
      "constant": false,
      "inputs": [
        {
          "name": "Uname",
          "type": "string"
        },
        {
          "name": "password",
          "type": "string"
        },
        {
          "name": "DataHash",
          "type": "string"
        }
      ],
      "name": "modifyCustomer",
      "outputs": [
        {
          "name": "",
          "type": "uint256"
        }
      ],
      "payable": true,
      "stateMutability": "payable",
      "type": "function"
    },
    {
      "constant": false,
      "inputs": [
        {
          "name": "Uname",
          "type": "string"
        },
        {
          "name": "password",
          "type": "string"
        }
      ],
      "name": "viewCustomer",
      "outputs": [
        {
          "name": "",
          "type": "string"
        }
      ],
      "payable": true,
      "stateMutability": "payable",
      "type": "function"
    },
    {
      "constant": false,
      "inputs": [
        {
          "name": "Uname",
          "type": "string"
        }
      ],
      "name": "upvoteCustomer",
      "outputs": [
        {
          "name": "",
          "type": "uint256"
        }
      ],
      "payable": true,
      "stateMutability": "payable",
      "type": "function"
    },
    {
      "constant": false,
      "inputs": [
        {
          "name": "bankAddress",
          "type": "address"
        }
      ],
      "name": "getBankRequests",
      "outputs": [],
      "payable": true,
      "stateMutability": "payable",
      "type": "function"
    },
    {
      "constant": false,
      "inputs": [
        {
          "name": "bankAddress",
          "type": "address"
        }
      ],
      "name": "upvoteBank",
      "outputs": [
        {
          "name": "",
          "type": "uint256"
        }
      ],
      "payable": true,
      "stateMutability": "payable",
      "type": "function"
    },
    {
      "constant": true,
      "inputs": [
        {
          "name": "Uname",
          "type": "string"
        }
      ],
      "name": "getCustomerRating",
      "outputs": [
        {
          "name": "",
          "type": "uint256"
        }
      ],
      "payable": false,
      "stateMutability": "view",
      "type": "function"
    },
    {
      "constant": true,
      "inputs": [
        {
          "name": "bankAddress",
          "type": "address"
        }
      ],
      "name": "getBankRating",
      "outputs": [
        {
          "name": "",
          "type": "uint256"
        }
      ],
      "payable": false,
      "stateMutability": "view",
      "type": "function"
    },
    {
      "constant": true,
      "inputs": [
        {
          "name": "uname",
          "type": "string"
        }
      ],
      "name": "getAccessHistory",
      "outputs": [
        {
          "name": "",
          "type": "address"
        }
      ],
      "payable": false,
      "stateMutability": "view",
      "type": "function"
    },
    {
      "constant": false,
      "inputs": [
        {
          "name": "uname",
          "type": "string"
        },
        {
          "name": "password",
          "type": "string"
        }
      ],
      "name": "setPassword",
      "outputs": [
        {
          "name": "",
          "type": "bool"
        }
      ],
      "payable": true,
      "stateMutability": "payable",
      "type": "function"
    },
    {
      "constant": false,
      "inputs": [
        {
          "name": "bankAddress",
          "type": "address"
        }
      ],
      "name": "getBankDetails",
      "outputs": [],
      "payable": true,
      "stateMutability": "payable",
      "type": "function"
    }
  ],
  "bytecode": "0x608060405234801561001057600080fd5b5033600160006101000a81548173ffffffffffffffffffffffffffffffffffffffff021916908373ffffffffffffffffffffffffffffffffffffffff160217905550600a600081905550615a6a806200006a6000396000f3fe60806040526004361061014b5760003560e01c80639649650c116100b6578063ca3864961161006f578063ca3864961461136d578063ccfa8e71146114d7578063e4e4d51114611661578063eb6fbd20146117d3578063f2f4ed8f146119a0578063fc55ea9d14611a6f5761014b565b80639649650c14610c855780639bf4ec2f14610ce1578063a0635f7e14610e3f578063a18dce7b14610fa5578063b8144a72146111a2578063b9da4af8146112075761014b565b80634f9296aa116101085780634f9296aa146106d3578063628e09ad1461083157806367377c05146108755780638117eada146109f35780638eafe0f014610afb57806390077a6814610bd75761014b565b80631313d9f51461015057806315101e021461021f5780631f2c141a146102635780633190abc01461042e5780634892712b1461059457806349fb94e21461067b575b600080fd5b6102096004803603602081101561016657600080fd5b810190808035906020019064010000000081111561018357600080fd5b82018360208201111561019557600080fd5b803590602001918460018302840111640100000000831117156101b757600080fd5b91908080601f016020809104026020016040519081016040528093929190818152602001838380828437600081840152601f19601f820116905080830192505050505050509192919290505050611b3e565b6040518082815260200191505060405180910390f35b6102616004803603602081101561023557600080fd5b81019080803573ffffffffffffffffffffffffffffffffffffffff169060200190929190505050611dac565b005b6103b36004803603604081101561027957600080fd5b810190808035906020019064010000000081111561029657600080fd5b8201836020820111156102a857600080fd5b803590602001918460018302840111640100000000831117156102ca57600080fd5b91908080601f016020809104026020016040519081016040528093929190818152602001838380828437600081840152601f19601f8201169050808301925050505050505091929192908035906020019064010000000081111561032d57600080fd5b82018360208201111561033f57600080fd5b8035906020019184600183028401116401000000008311171561036157600080fd5b91908080601f016020809104026020016040519081016040528093929190818152602001838380828437600081840152601f19601f820116905080830192505050505050509192919290505050612154565b6040518080602001828103825283818151815260200191508051906020019080838360005b838110156103f35780820151818401526020810190506103d8565b50505050905090810190601f1680156104205780820380516001836020036101000a031916815260200191505b509250505060405180910390f35b61057e6004803603604081101561044457600080fd5b810190808035906020019064010000000081111561046157600080fd5b82018360208201111561047357600080fd5b8035906020019184600183028401116401000000008311171561049557600080fd5b91908080601f016020809104026020016040519081016040528093929190818152602001838380828437600081840152601f19601f820116905080830192505050505050509192919290803590602001906401000000008111156104f857600080fd5b82018360208201111561050a57600080fd5b8035906020019184600183028401116401000000008311171561052c57600080fd5b91908080601f016020809104026020016040519081016040528093929190818152602001838380828437600081840152601f19601f8201169050808301925050505050505091929192905050506122de565b6040518082815260200191505060405180910390f35b3480156105a057600080fd5b506105cd600480360360208110156105b757600080fd5b81019080803590602001909291905050506126c7565b604051808373ffffffffffffffffffffffffffffffffffffffff1673ffffffffffffffffffffffffffffffffffffffff16815260200180602001828103825283818151815260200191508051906020019080838360005b8381101561063f578082015181840152602081019050610624565b50505050905090810190601f16801561066c5780820380516001836020036101000a031916815260200191505b50935050505060405180910390f35b6106bd6004803603602081101561069157600080fd5b81019080803573ffffffffffffffffffffffffffffffffffffffff1690602001909291905050506127b0565b6040518082815260200191505060405180910390f35b3480156106df57600080fd5b5061070c600480360360208110156106f657600080fd5b8101908080359060200190929190505050612d00565b60405180806020018573ffffffffffffffffffffffffffffffffffffffff1673ffffffffffffffffffffffffffffffffffffffff1681526020018060200184151515158152602001838103835287818151815260200191508051906020019080838360005b8381101561078c578082015181840152602081019050610771565b50505050905090810190601f1680156107b95780820380516001836020036101000a031916815260200191505b50838103825285818151815260200191508051906020019080838360005b838110156107f25780820151818401526020810190506107d7565b50505050905090810190601f16801561081f5780820380516001836020036101000a031916815260200191505b50965050505050505060405180910390f35b6108736004803603602081101561084757600080fd5b81019080803573ffffffffffffffffffffffffffffffffffffffff169060200190929190505050612e9a565b005b34801561088157600080fd5b506108c46004803603602081101561089857600080fd5b81019080803573ffffffffffffffffffffffffffffffffffffffff16906020019092919050505061320b565b60405180806020018773ffffffffffffffffffffffffffffffffffffffff1673ffffffffffffffffffffffffffffffffffffffff16815260200186815260200180602001858152602001848152602001838103835289818151815260200191508051906020019080838360005b8381101561094c578082015181840152602081019050610931565b50505050905090810190601f1680156109795780820380516001836020036101000a031916815260200191505b50838103825286818151815260200191508051906020019080838360005b838110156109b2578082015181840152602081019050610997565b50505050905090810190601f1680156109df5780820380516001836020036101000a031916815260200191505b509850505050505050505060405180910390f35b3480156109ff57600080fd5b50610ab960048036036020811015610a1657600080fd5b8101908080359060200190640100000000811115610a3357600080fd5b820183602082011115610a4557600080fd5b80359060200191846001830284011164010000000083111715610a6757600080fd5b91908080601f016020809104026020016040519081016040528093929190818152602001838380828437600081840152601f19601f820116905080830192505050505050509192919290505050613397565b604051808273ffffffffffffffffffffffffffffffffffffffff1673ffffffffffffffffffffffffffffffffffffffff16815260200191505060405180910390f35b348015610b0757600080fd5b50610bc160048036036020811015610b1e57600080fd5b8101908080359060200190640100000000811115610b3b57600080fd5b820183602082011115610b4d57600080fd5b80359060200191846001830284011164010000000083111715610b6f57600080fd5b91908080601f016020809104026020016040519081016040528093929190818152602001838380828437600081840152601f19601f8201169050808301925050505050505091929192905050506134e6565b6040518082815260200191505060405180910390f35b348015610be357600080fd5b50610c1060048036036020811015610bfa57600080fd5b8101908080359060200190929190505050613615565b604051808373ffffffffffffffffffffffffffffffffffffffff1673ffffffffffffffffffffffffffffffffffffffff1681526020018273ffffffffffffffffffffffffffffffffffffffff1673ffffffffffffffffffffffffffffffffffffffff1681526020019250505060405180910390f35b610cc760048036036020811015610c9b57600080fd5b81019080803573ffffffffffffffffffffffffffffffffffffffff169060200190929190505050613686565b604051808215151515815260200191505060405180910390f35b348015610ced57600080fd5b50610d1a60048036036020811015610d0457600080fd5b8101908080359060200190929190505050613878565b60405180806020018573ffffffffffffffffffffffffffffffffffffffff1673ffffffffffffffffffffffffffffffffffffffff1681526020018060200184151515158152602001838103835287818151815260200191508051906020019080838360005b83811015610d9a578082015181840152602081019050610d7f565b50505050905090810190601f168015610dc75780820380516001836020036101000a031916815260200191505b50838103825285818151815260200191508051906020019080838360005b83811015610e00578082015181840152602081019050610de5565b50505050905090810190601f168015610e2d5780820380516001836020036101000a031916815260200191505b50965050505050505060405180910390f35b610f8f60048036036040811015610e5557600080fd5b8101908080359060200190640100000000811115610e7257600080fd5b820183602082011115610e8457600080fd5b80359060200191846001830284011164010000000083111715610ea657600080fd5b91908080601f016020809104026020016040519081016040528093929190818152602001838380828437600081840152601f19601f82011690508083019250505050505050919291929080359060200190640100000000811115610f0957600080fd5b820183602082011115610f1b57600080fd5b80359060200191846001830284011164010000000083111715610f3d57600080fd5b91908080601f016020809104026020016040519081016040528093929190818152602001838380828437600081840152601f19601f820116905080830192505050505050509192919290505050613a12565b6040518082815260200191505060405180910390f35b61118c60048036036060811015610fbb57600080fd5b8101908080359060200190640100000000811115610fd857600080fd5b820183602082011115610fea57600080fd5b8035906020019184600183028401116401000000008311171561100c57600080fd5b91908080601f016020809104026020016040519081016040528093929190818152602001838380828437600081840152601f19601f8201169050808301925050505050505091929192908035906020019064010000000081111561106f57600080fd5b82018360208201111561108157600080fd5b803590602001918460018302840111640100000000831117156110a357600080fd5b91908080601f016020809104026020016040519081016040528093929190818152602001838380828437600081840152601f19601f8201169050808301925050505050505091929192908035906020019064010000000081111561110657600080fd5b82018360208201111561111857600080fd5b8035906020019184600183028401116401000000008311171561113a57600080fd5b91908080601f016020809104026020016040519081016040528093929190818152602001838380828437600081840152601f19601f820116905080830192505050505050509192919290505050613cac565b6040518082815260200191505060405180910390f35b3480156111ae57600080fd5b506111f1600480360360208110156111c557600080fd5b81019080803573ffffffffffffffffffffffffffffffffffffffff169060200190929190505050613ed9565b6040518082815260200191505060405180910390f35b6113576004803603604081101561121d57600080fd5b810190808035906020019064010000000081111561123a57600080fd5b82018360208201111561124c57600080fd5b8035906020019184600183028401116401000000008311171561126e57600080fd5b91908080601f016020809104026020016040519081016040528093929190818152602001838380828437600081840152601f19601f820116905080830192505050505050509192919290803590602001906401000000008111156112d157600080fd5b8201836020820111156112e357600080fd5b8035906020019184600183028401116401000000008311171561130557600080fd5b91908080601f016020809104026020016040519081016040528093929190818152602001838380828437600081840152601f19601f820116905080830192505050505050509192919290505050613fda565b6040518082815260200191505060405180910390f35b6114bd6004803603604081101561138357600080fd5b81019080803590602001906401000000008111156113a057600080fd5b8201836020820111156113b257600080fd5b803590602001918460018302840111640100000000831117156113d457600080fd5b91908080601f016020809104026020016040519081016040528093929190818152602001838380828437600081840152601f19601f8201169050808301925050505050505091929192908035906020019064010000000081111561143757600080fd5b82018360208201111561144957600080fd5b8035906020019184600183028401116401000000008311171561146b57600080fd5b91908080601f016020809104026020016040519081016040528093929190818152602001838380828437600081840152601f19601f8201169050808301925050505050505091929192905050506142fe565b604051808215151515815260200191505060405180910390f35b611647600480360360608110156114ed57600080fd5b810190808035906020019064010000000081111561150a57600080fd5b82018360208201111561151c57600080fd5b8035906020019184600183028401116401000000008311171561153e57600080fd5b91908080601f016020809104026020016040519081016040528093929190818152602001838380828437600081840152601f19601f820116905080830192505050505050509192919290803573ffffffffffffffffffffffffffffffffffffffff169060200190929190803590602001906401000000008111156115c157600080fd5b8201836020820111156115d357600080fd5b803590602001918460018302840111640100000000831117156115f557600080fd5b91908080601f016020809104026020016040519081016040528093929190818152602001838380828437600081840152601f19601f820116905080830192505050505050509192919290505050614448565b604051808215151515815260200191505060405180910390f35b6117d16004803603606081101561167757600080fd5b810190808035906020019064010000000081111561169457600080fd5b8201836020820111156116a657600080fd5b803590602001918460018302840111640100000000831117156116c857600080fd5b91908080601f016020809104026020016040519081016040528093929190818152602001838380828437600081840152601f19601f820116905080830192505050505050509192919290803573ffffffffffffffffffffffffffffffffffffffff1690602001909291908035906020019064010000000081111561174b57600080fd5b82018360208201111561175d57600080fd5b8035906020019184600183028401116401000000008311171561177f57600080fd5b91908080601f016020809104026020016040519081016040528093929190818152602001838380828437600081840152601f19601f820116905080830192505050505050509192919290505050614823565b005b3480156117df57600080fd5b5061180c600480360360208110156117f657600080fd5b8101908080359060200190929190505050614b0d565b6040518080602001806020018781526020018681526020018573ffffffffffffffffffffffffffffffffffffffff1673ffffffffffffffffffffffffffffffffffffffff1681526020018060200184810384528a818151815260200191508051906020019080838360005b83811015611892578082015181840152602081019050611877565b50505050905090810190601f1680156118bf5780820380516001836020036101000a031916815260200191505b50848103835289818151815260200191508051906020019080838360005b838110156118f85780820151818401526020810190506118dd565b50505050905090810190601f1680156119255780820380516001836020036101000a031916815260200191505b50848103825285818151815260200191508051906020019080838360005b8381101561195e578082015181840152602081019050611943565b50505050905090810190601f16801561198b5780820380516001836020036101000a031916815260200191505b50995050505050505050505060405180910390f35b611a59600480360360208110156119b657600080fd5b81019080803590602001906401000000008111156119d357600080fd5b8201836020820111156119e557600080fd5b80359060200191846001830284011164010000000083111715611a0757600080fd5b91908080601f016020809104026020016040519081016040528093929190818152602001838380828437600081840152601f19601f820116905080830192505050505050509192919290505050614d3e565b6040518082815260200191505060405180910390f35b611b2860048036036020811015611a8557600080fd5b8101908080359060200190640100000000811115611aa257600080fd5b820183602082011115611ab457600080fd5b80359060200191846001830284011164010000000083111715611ad657600080fd5b91908080601f016020809104026020016040519081016040528093929190818152602001838380828437600081840152601f19601f820116905080830192505050505050509192919290505050615194565b6040518082815260200191505060405180910390f35b6000801515611b9d600360003373ffffffffffffffffffffffffffffffffffffffff1673ffffffffffffffffffffffffffffffffffffffff16815260200190815260200160002060000160405180602001604052806000815250615411565b151514611bf5576040517f08c379a00000000000000000000000000000000000000000000000000000000081526004018080602001828103825260448152602001806159d06044913960600191505060405180910390fd5b60008090505b600580549050811015611da157611c2f60058281548110611c1857fe5b906000526020600020906004020160000184615411565b15611d965760006001820190505b600580549050811015611d755760058281548110611c5757fe5b906000526020600020906004020160056001840381548110611c7557fe5b906000526020600020906004020160008201816000019080546001816001161561010002031660029004611caa929190615550565b506001820160009054906101000a900473ffffffffffffffffffffffffffffffffffffffff168160010160006101000a81548173ffffffffffffffffffffffffffffffffffffffff021916908373ffffffffffffffffffffffffffffffffffffffff16021790555060028201816002019080546001816001161561010002031660029004611d39929190615550565b506003820160009054906101000a900460ff168160030160006101000a81548160ff021916908315150217905550905050806001019050611c3d565b506005805480919060019003611d8b91906155d7565b506000915050611da7565b806001019050611bfb565b50600190505b919050565b60001515611e0a600360003373ffffffffffffffffffffffffffffffffffffffff1673ffffffffffffffffffffffffffffffffffffffff16815260200190815260200160002060000160405180602001604052806000815250615411565b151514611e62576040517f08c379a00000000000000000000000000000000000000000000000000000000081526004018080602001828103825260448152602001806159d06044913960600191505060405180910390fd5b7f960573cc2c577a8ec308919e980931d620a54f1a4041bb0b6a6d9f67bea8468f600360008373ffffffffffffffffffffffffffffffffffffffff1673ffffffffffffffffffffffffffffffffffffffff168152602001908152602001600020600001600360008473ffffffffffffffffffffffffffffffffffffffff1673ffffffffffffffffffffffffffffffffffffffff16815260200190815260200160002060010160009054906101000a900473ffffffffffffffffffffffffffffffffffffffff16600360008573ffffffffffffffffffffffffffffffffffffffff1673ffffffffffffffffffffffffffffffffffffffff16815260200190815260200160002060020154600360008673ffffffffffffffffffffffffffffffffffffffff1673ffffffffffffffffffffffffffffffffffffffff168152602001908152602001600020600301600360008773ffffffffffffffffffffffffffffffffffffffff1673ffffffffffffffffffffffffffffffffffffffff1681526020019081526020016000206004015460405180806020018673ffffffffffffffffffffffffffffffffffffffff1673ffffffffffffffffffffffffffffffffffffffff168152602001858152602001806020018481526020018381038352888181546001816001161561010002031660029004815260200191508054600181600116156101000203166002900480156120bb5780601f10612090576101008083540402835291602001916120bb565b820191906000526020600020905b81548152906001019060200180831161209e57829003601f168201915b505083810382528581815460018160011615610100020316600290048152602001915080546001816001161561010002031660029004801561213e5780601f106121135761010080835404028352916020019161213e565b820191906000526020600020905b81548152906001019060200180831161212157829003601f168201915b505097505050505050505060405180910390a150565b6060600015156121b4600360003373ffffffffffffffffffffffffffffffffffffffff1673ffffffffffffffffffffffffffffffffffffffff16815260200190815260200160002060000160405180602001604052806000815250615411565b15151461220c576040517f08c379a00000000000000000000000000000000000000000000000000000000081526004018080602001828103825260448152602001806159d06044913960600191505060405180910390fd5b60008090505b60028054905081101561229f576122466002828154811061222f57fe5b906000526020600020906006020160000185615411565b801561227557506122746002828154811061225d57fe5b906000526020600020906006020160050184615411565b5b15612294576002818154811061228757fe5b9060005260206000209050505b806001019050612212565b506040518060400160405280601f81526020017f437573746f6d6572206e6f7420666f756e6420696e2064617461626173652100815250905092915050565b600080151561233d600360003373ffffffffffffffffffffffffffffffffffffffff1673ffffffffffffffffffffffffffffffffffffffff16815260200190815260200160002060000160405180602001604052806000815250615411565b151514612395576040517f08c379a00000000000000000000000000000000000000000000000000000000081526004018080602001828103825260448152602001806159d06044913960600191505060405180910390fd5b60008090505b600280549050811015612418576123cf600282815481106123b857fe5b906000526020600020906006020160000185615411565b80156123fe57506123fd600482815481106123e657fe5b906000526020600020906004020160020184615411565b5b1561240d5760009150506126c1565b80600101905061239b565b50600060016004805490500390505b600081106126bb57600360003373ffffffffffffffffffffffffffffffffffffffff1673ffffffffffffffffffffffffffffffffffffffff16815260200190815260200160002060010160009054906101000a900473ffffffffffffffffffffffffffffffffffffffff1673ffffffffffffffffffffffffffffffffffffffff16600482815481106124b557fe5b906000526020600020906004020160010160009054906101000a900473ffffffffffffffffffffffffffffffffffffffff1673ffffffffffffffffffffffffffffffffffffffff161480156125395750600115156004828154811061251657fe5b906000526020600020906004020160030160009054906101000a900460ff161515145b156126af57600280548091906001016125529190615609565b506040518060c0016040528085815260200184815260200160008152602001600081526020013373ffffffffffffffffffffffffffffffffffffffff1681526020016040518060400160405280600181526020017f30000000000000000000000000000000000000000000000000000000000000008152508152506002600160028054905003815481106125e257fe5b9060005260206000209060060201600082015181600001908051906020019061260c92919061563b565b50602082015181600101908051906020019061262992919061563b565b50604082015181600201556060820151816003015560808201518160040160006101000a81548173ffffffffffffffffffffffffffffffffffffffff021916908373ffffffffffffffffffffffffffffffffffffffff16021790555060a08201518160050190805190602001906126a192919061563b565b5090505060019150506126c1565b80600190039050612427565b50600090505b92915050565b600681815481106126d457fe5b90600052602060002090600202016000915090508060000160009054906101000a900473ffffffffffffffffffffffffffffffffffffffff1690806001018054600181600116156101000203166002900480601f0160208091040260200160405190810160405280929190818152602001828054600181600116156101000203166002900480156127a65780601f1061277b576101008083540402835291602001916127a6565b820191906000526020600020905b81548152906001019060200180831161278957829003601f168201915b5050505050905082565b600080151561280f600360003373ffffffffffffffffffffffffffffffffffffffff1673ffffffffffffffffffffffffffffffffffffffff16815260200190815260200160002060000160405180602001604052806000815250615411565b151514612867576040517f08c379a00000000000000000000000000000000000000000000000000000000081526004018080602001828103825260448152602001806159d06044913960600191505060405180910390fd5b6000600360003373ffffffffffffffffffffffffffffffffffffffff1673ffffffffffffffffffffffffffffffffffffffff16815260200190815260200160002060010160009054906101000a900473ffffffffffffffffffffffffffffffffffffffff1690506000600360008573ffffffffffffffffffffffffffffffffffffffff1673ffffffffffffffffffffffffffffffffffffffff16815260200190815260200160002060010160009054906101000a900473ffffffffffffffffffffffffffffffffffffffff169050600073ffffffffffffffffffffffffffffffffffffffff168173ffffffffffffffffffffffffffffffffffffffff16148061299b57508173ffffffffffffffffffffffffffffffffffffffff168173ffffffffffffffffffffffffffffffffffffffff16145b156129ab57600192505050612cfb565b600073ffffffffffffffffffffffffffffffffffffffff168273ffffffffffffffffffffffffffffffffffffffff1614612cf45760008090505b600780549050811015612af0573373ffffffffffffffffffffffffffffffffffffffff1660078281548110612a1657fe5b906000526020600020906002020160000160009054906101000a900473ffffffffffffffffffffffffffffffffffffffff1673ffffffffffffffffffffffffffffffffffffffff16148015612ad457508473ffffffffffffffffffffffffffffffffffffffff1660078281548110612a8a57fe5b906000526020600020906002020160010160009054906101000a900473ffffffffffffffffffffffffffffffffffffffff1673ffffffffffffffffffffffffffffffffffffffff16145b15612ae55760019350505050612cfb565b8060010190506129e5565b50600360008273ffffffffffffffffffffffffffffffffffffffff1673ffffffffffffffffffffffffffffffffffffffff1681526020019081526020016000206005016000815480929190600101919050555060078054809190600101612b5791906156bb565b5060405180604001604052803373ffffffffffffffffffffffffffffffffffffffff1681526020018573ffffffffffffffffffffffffffffffffffffffff16815250600760016007805490500381548110612bae57fe5b906000526020600020906002020160008201518160000160006101000a81548173ffffffffffffffffffffffffffffffffffffffff021916908373ffffffffffffffffffffffffffffffffffffffff16021790555060208201518160010160006101000a81548173ffffffffffffffffffffffffffffffffffffffff021916908373ffffffffffffffffffffffffffffffffffffffff160217905550905050600080546064600360008873ffffffffffffffffffffffffffffffffffffffff1673ffffffffffffffffffffffffffffffffffffffff168152602001908152602001600020600501540281612c9e57fe5b04905080600360008773ffffffffffffffffffffffffffffffffffffffff1673ffffffffffffffffffffffffffffffffffffffff1681526020019081526020016000206004018190555060009350505050612cfb565b6001925050505b919050565b60058181548110612d0d57fe5b9060005260206000209060040201600091509050806000018054600181600116156101000203166002900480601f016020809104026020016040519081016040528092919081815260200182805460018160011615610100020316600290048015612db95780601f10612d8e57610100808354040283529160200191612db9565b820191906000526020600020905b815481529060010190602001808311612d9c57829003601f168201915b5050505050908060010160009054906101000a900473ffffffffffffffffffffffffffffffffffffffff1690806002018054600181600116156101000203166002900480601f016020809104026020016040519081016040528092919081815260200182805460018160011615610100020316600290048015612e7d5780601f10612e5257610100808354040283529160200191612e7d565b820191906000526020600020905b815481529060010190602001808311612e6057829003601f168201915b5050505050908060030160009054906101000a900460ff16905084565b60001515612ef8600360003373ffffffffffffffffffffffffffffffffffffffff1673ffffffffffffffffffffffffffffffffffffffff16815260200190815260200160002060000160405180602001604052806000815250615411565b151514612f50576040517f08c379a00000000000000000000000000000000000000000000000000000000081526004018080602001828103825260448152602001806159d06044913960600191505060405180910390fd5b60008090505b600480549050811015613207578173ffffffffffffffffffffffffffffffffffffffff1660048281548110612f8757fe5b906000526020600020906004020160010160009054906101000a900473ffffffffffffffffffffffffffffffffffffffff1673ffffffffffffffffffffffffffffffffffffffff1614156131fc577f1a96f9da5b5b5ee24c70b9e39e5e12abcd2b7a704f65d080b315081c18f063e76004828154811061300357fe5b90600052602060002090600402016000016004838154811061302157fe5b906000526020600020906004020160010160009054906101000a900473ffffffffffffffffffffffffffffffffffffffff166004848154811061306057fe5b90600052602060002090600402016002016004858154811061307e57fe5b906000526020600020906004020160030160009054906101000a900460ff1660405180806020018573ffffffffffffffffffffffffffffffffffffffff1673ffffffffffffffffffffffffffffffffffffffff16815260200180602001841515151581526020018381038352878181546001816001161561010002031660029004815260200191508054600181600116156101000203166002900480156131665780601f1061313b57610100808354040283529160200191613166565b820191906000526020600020905b81548152906001019060200180831161314957829003601f168201915b50508381038252858181546001816001161561010002031660029004815260200191508054600181600116156101000203166002900480156131e95780601f106131be576101008083540402835291602001916131e9565b820191906000526020600020905b8154815290600101906020018083116131cc57829003601f168201915b5050965050505050505060405180910390a15b806001019050612f56565b5050565b6003602052806000526040600020600091509050806000018054600181600116156101000203166002900480601f0160208091040260200160405190810160405280929190818152602001828054600181600116156101000203166002900480156132b75780601f1061328c576101008083540402835291602001916132b7565b820191906000526020600020905b81548152906001019060200180831161329a57829003601f168201915b5050505050908060010160009054906101000a900473ffffffffffffffffffffffffffffffffffffffff1690806002015490806003018054600181600116156101000203166002900480601f0160208091040260200160405190810160405280929190818152602001828054600181600116156101000203166002900480156133815780601f1061335657610100808354040283529160200191613381565b820191906000526020600020905b81548152906001019060200180831161336457829003601f168201915b5050505050908060040154908060050154905086565b60008015156133f6600360003373ffffffffffffffffffffffffffffffffffffffff1673ffffffffffffffffffffffffffffffffffffffff16815260200190815260200160002060000160405180602001604052806000815250615411565b15151461344e576040517f08c379a00000000000000000000000000000000000000000000000000000000081526004018080602001828103825260448152602001806159d06044913960600191505060405180910390fd5b60008090505b6002805490508110156134df576134886002828154811061347157fe5b906000526020600020906006020160000184615411565b156134d4576002818154811061349a57fe5b906000526020600020906006020160040160009054906101000a900473ffffffffffffffffffffffffffffffffffffffff169150506134e1565b806001019050613454565b505b919050565b6000801515613545600360003373ffffffffffffffffffffffffffffffffffffffff1673ffffffffffffffffffffffffffffffffffffffff16815260200190815260200160002060000160405180602001604052806000815250615411565b15151461359d576040517f08c379a00000000000000000000000000000000000000000000000000000000081526004018080602001828103825260448152602001806159d06044913960600191505060405180910390fd5b60008090505b60028054905081101561360e576135d7600282815481106135c057fe5b906000526020600020906006020160000184615411565b1561360357600281815481106135e957fe5b906000526020600020906006020160020154915050613610565b8060010190506135a3565b505b919050565b6007818154811061362257fe5b90600052602060002090600202016000915090508060000160009054906101000a900473ffffffffffffffffffffffffffffffffffffffff16908060010160009054906101000a900473ffffffffffffffffffffffffffffffffffffffff16905082565b60003373ffffffffffffffffffffffffffffffffffffffff16600160009054906101000a900473ffffffffffffffffffffffffffffffffffffffff1673ffffffffffffffffffffffffffffffffffffffff161461372e576040517f08c379a0000000000000000000000000000000000000000000000000000000008152600401808060200182810382526022815260200180615a146022913960400191505060405180910390fd5b600073ffffffffffffffffffffffffffffffffffffffff16600360008473ffffffffffffffffffffffffffffffffffffffff1673ffffffffffffffffffffffffffffffffffffffff16815260200190815260200160002060010160009054906101000a900473ffffffffffffffffffffffffffffffffffffffff1673ffffffffffffffffffffffffffffffffffffffff161461386e57600360008373ffffffffffffffffffffffffffffffffffffffff1673ffffffffffffffffffffffffffffffffffffffff1681526020019081526020016000206000808201600061381491906156ed565b6001820160006101000a81549073ffffffffffffffffffffffffffffffffffffffff0219169055600282016000905560038201600061385391906156ed565b60048201600090556005820160009055505060019050613873565b600090505b919050565b6004818154811061388557fe5b9060005260206000209060040201600091509050806000018054600181600116156101000203166002900480601f0160208091040260200160405190810160405280929190818152602001828054600181600116156101000203166002900480156139315780601f1061390657610100808354040283529160200191613931565b820191906000526020600020905b81548152906001019060200180831161391457829003601f168201915b5050505050908060010160009054906101000a900473ffffffffffffffffffffffffffffffffffffffff1690806002018054600181600116156101000203166002900480601f0160208091040260200160405190810160405280929190818152602001828054600181600116156101000203166002900480156139f55780601f106139ca576101008083540402835291602001916139f5565b820191906000526020600020905b8154815290600101906020018083116139d857829003601f168201915b5050505050908060030160009054906101000a900460ff16905084565b6000801515613a71600360003373ffffffffffffffffffffffffffffffffffffffff1673ffffffffffffffffffffffffffffffffffffffff16815260200190815260200160002060000160405180602001604052806000815250615411565b151514613ac9576040517f08c379a00000000000000000000000000000000000000000000000000000000081526004018080602001828103825260448152602001806159d06044913960600191505060405180910390fd5b60008090505b600480549050811015613ca457613b0360048281548110613aec57fe5b906000526020600020906004020160000185615411565b8015613b325750613b3160048281548110613b1a57fe5b906000526020600020906004020160020184615411565b5b15613c995760006001820190505b600480549050811015613c785760048281548110613b5a57fe5b906000526020600020906004020160046001840381548110613b7857fe5b906000526020600020906004020160008201816000019080546001816001161561010002031660029004613bad929190615550565b506001820160009054906101000a900473ffffffffffffffffffffffffffffffffffffffff168160010160006101000a81548173ffffffffffffffffffffffffffffffffffffffff021916908373ffffffffffffffffffffffffffffffffffffffff16021790555060028201816002019080546001816001161561010002031660029004613c3c929190615550565b506003820160009054906101000a900460ff168160030160006101000a81548160ff021916908315150217905550905050806001019050613b40565b506004805480919060019003613c8e91906155d7565b506001915050613ca6565b806001019050613acf565b505b92915050565b6000801515613d0b600360003373ffffffffffffffffffffffffffffffffffffffff1673ffffffffffffffffffffffffffffffffffffffff16815260200190815260200160002060000160405180602001604052806000815250615411565b151514613d63576040517f08c379a00000000000000000000000000000000000000000000000000000000081526004018080602001828103825260448152602001806159d06044913960600191505060405180910390fd5b60008090505b600280549050811015613ecc57613d9d60028281548110613d8657fe5b906000526020600020906006020160000186615411565b15613eb7578260028281548110613db057fe5b90600052602060002090600602016001019080519060200190613dd4929190615735565b503360028281548110613de357fe5b906000526020600020906006020160040160006101000a81548173ffffffffffffffffffffffffffffffffffffffff021916908373ffffffffffffffffffffffffffffffffffffffff1602179055508360028281548110613e4057fe5b90600052602060002090600602016005019080519060200190613e64929190615735565b50600060028281548110613e7457fe5b906000526020600020906006020160020181905550600060028281548110613e9857fe5b9060005260206000209060060201600301819055506001915050613ed2565b613ec085611b3e565b50806001019050613d69565b50600090505b9392505050565b6000801515613f38600360003373ffffffffffffffffffffffffffffffffffffffff1673ffffffffffffffffffffffffffffffffffffffff16815260200190815260200160002060000160405180602001604052806000815250615411565b151514613f90576040517f08c379a00000000000000000000000000000000000000000000000000000000081526004018080602001828103825260448152602001806159d06044913960600191505060405180910390fd5b600360008373ffffffffffffffffffffffffffffffffffffffff1673ffffffffffffffffffffffffffffffffffffffff168152602001908152602001600020600401549050919050565b6000801515614039600360003373ffffffffffffffffffffffffffffffffffffffff1673ffffffffffffffffffffffffffffffffffffffff16815260200190815260200160002060000160405180602001604052806000815250615411565b151514614091576040517f08c379a00000000000000000000000000000000000000000000000000000000081526004018080602001828103825260448152602001806159d06044913960600191505060405180910390fd5b6000600360003373ffffffffffffffffffffffffffffffffffffffff1673ffffffffffffffffffffffffffffffffffffffff16815260200190815260200160002060010160009054906101000a900473ffffffffffffffffffffffffffffffffffffffff16905060008090505b60048054905081101561417c576141326004828154811061411b57fe5b906000526020600020906004020160000186615411565b801561416157506141606004828154811061414957fe5b906000526020600020906004020160020185615411565b5b15614171576000925050506142f8565b8060010190506140fe565b5060008090506032600360003373ffffffffffffffffffffffffffffffffffffffff1673ffffffffffffffffffffffffffffffffffffffff1681526020019081526020016000206004015411156142f15760019050600480548091906001016141e591906155d7565b5060405180608001604052808681526020018373ffffffffffffffffffffffffffffffffffffffff16815260200185815260200182151581525060046001600480549050038154811061423457fe5b9060005260206000209060040201600082015181600001908051906020019061425e92919061563b565b5060208201518160010160006101000a81548173ffffffffffffffffffffffffffffffffffffffff021916908373ffffffffffffffffffffffffffffffffffffffff16021790555060408201518160020190805190602001906142c292919061563b565b5060608201518160030160006101000a81548160ff0219169083151502179055509050506001925050506142f8565b6000925050505b92915050565b600080151561435d600360003373ffffffffffffffffffffffffffffffffffffffff1673ffffffffffffffffffffffffffffffffffffffff16815260200190815260200160002060000160405180602001604052806000815250615411565b1515146143b5576040517f08c379a00000000000000000000000000000000000000000000000000000000081526004018080602001828103825260448152602001806159d06044913960600191505060405180910390fd5b60008090505b60028054905081101561443c576143ef600282815481106143d857fe5b906000526020600020906006020160000185615411565b1561443157826002828154811061440257fe5b90600052602060002090600602016005019080519060200190614426929190615735565b506001915050614442565b8060010190506143bb565b50600090505b92915050565b60003373ffffffffffffffffffffffffffffffffffffffff16600160009054906101000a900473ffffffffffffffffffffffffffffffffffffffff1673ffffffffffffffffffffffffffffffffffffffff16146144f0576040517f08c379a0000000000000000000000000000000000000000000000000000000008152600401808060200182810382526022815260200180615a146022913960400191505060405180910390fd5b600360008473ffffffffffffffffffffffffffffffffffffffff1673ffffffffffffffffffffffffffffffffffffffff16815260200190815260200160002060010160009054906101000a900473ffffffffffffffffffffffffffffffffffffffff1673ffffffffffffffffffffffffffffffffffffffff168373ffffffffffffffffffffffffffffffffffffffff16141561458f576000905061481c565b82600360008573ffffffffffffffffffffffffffffffffffffffff1673ffffffffffffffffffffffffffffffffffffffff16815260200190815260200160002060010160006101000a81548173ffffffffffffffffffffffffffffffffffffffff021916908373ffffffffffffffffffffffffffffffffffffffff16021790555083600360008573ffffffffffffffffffffffffffffffffffffffff1673ffffffffffffffffffffffffffffffffffffffff1681526020019081526020016000206000019080519060200190614666929190615735565b5082600360008573ffffffffffffffffffffffffffffffffffffffff1673ffffffffffffffffffffffffffffffffffffffff16815260200190815260200160002060010160006101000a81548173ffffffffffffffffffffffffffffffffffffffff021916908373ffffffffffffffffffffffffffffffffffffffff16021790555081600360008573ffffffffffffffffffffffffffffffffffffffff1673ffffffffffffffffffffffffffffffffffffffff168152602001908152602001600020600301908051906020019061473e929190615735565b506000600360008573ffffffffffffffffffffffffffffffffffffffff1673ffffffffffffffffffffffffffffffffffffffff168152602001908152602001600020600201819055506000600360008573ffffffffffffffffffffffffffffffffffffffff1673ffffffffffffffffffffffffffffffffffffffff168152602001908152602001600020600501819055506000600360008573ffffffffffffffffffffffffffffffffffffffff1673ffffffffffffffffffffffffffffffffffffffff16815260200190815260200160002060040181905550600190505b9392505050565b60001515614881600360003373ffffffffffffffffffffffffffffffffffffffff1673ffffffffffffffffffffffffffffffffffffffff16815260200190815260200160002060000160405180602001604052806000815250615411565b1515146148d9576040517f08c379a00000000000000000000000000000000000000000000000000000000081526004018080602001828103825260448152602001806159d06044913960600191505060405180910390fd5b60008090505b60058054905081101561499e57614913600582815481106148fc57fe5b906000526020600020906004020160000185615411565b801561498857508273ffffffffffffffffffffffffffffffffffffffff166005828154811061493e57fe5b906000526020600020906004020160010160009054906101000a900473ffffffffffffffffffffffffffffffffffffffff1673ffffffffffffffffffffffffffffffffffffffff16145b156149935750614b08565b8060010190506148df565b50600580548091906001016149b391906155d7565b5060405180608001604052808481526020018373ffffffffffffffffffffffffffffffffffffffff16815260200182815260200160001515815250600560016005805490500381548110614a0357fe5b90600052602060002090600402016000820151816000019080519060200190614a2d92919061563b565b5060208201518160010160006101000a81548173ffffffffffffffffffffffffffffffffffffffff021916908373ffffffffffffffffffffffffffffffffffffffff1602179055506040820151816002019080519060200190614a9192919061563b565b5060608201518160030160006101000a81548160ff021916908315150217905550905050600360008373ffffffffffffffffffffffffffffffffffffffff1673ffffffffffffffffffffffffffffffffffffffff168152602001908152602001600020600201600081548092919060010191905055505b505050565b60028181548110614b1a57fe5b9060005260206000209060060201600091509050806000018054600181600116156101000203166002900480601f016020809104026020016040519081016040528092919081815260200182805460018160011615610100020316600290048015614bc65780601f10614b9b57610100808354040283529160200191614bc6565b820191906000526020600020905b815481529060010190602001808311614ba957829003601f168201915b505050505090806001018054600181600116156101000203166002900480601f016020809104026020016040519081016040528092919081815260200182805460018160011615610100020316600290048015614c645780601f10614c3957610100808354040283529160200191614c64565b820191906000526020600020905b815481529060010190602001808311614c4757829003601f168201915b5050505050908060020154908060030154908060040160009054906101000a900473ffffffffffffffffffffffffffffffffffffffff1690806005018054600181600116156101000203166002900480601f016020809104026020016040519081016040528092919081815260200182805460018160011615610100020316600290048015614d345780601f10614d0957610100808354040283529160200191614d34565b820191906000526020600020905b815481529060010190602001808311614d1757829003601f168201915b5050505050905086565b6000801515614d9d600360003373ffffffffffffffffffffffffffffffffffffffff1673ffffffffffffffffffffffffffffffffffffffff16815260200190815260200160002060000160405180602001604052806000815250615411565b151514614df5576040517f08c379a00000000000000000000000000000000000000000000000000000000081526004018080602001828103825260448152602001806159d06044913960600191505060405180910390fd5b600080600090505b600680549050811015614ec1573373ffffffffffffffffffffffffffffffffffffffff1660068281548110614e2e57fe5b906000526020600020906002020160000160009054906101000a900473ffffffffffffffffffffffffffffffffffffffff1673ffffffffffffffffffffffffffffffffffffffff16148015614ea65750614ea560068281548110614e8e57fe5b906000526020600020906002020160010185615411565b5b15614eb65760009250505061518f565b806001019050614dfd565b5060008090505b60028054905081101561518857614efc60028281548110614ee557fe5b906000526020600020906006020160000185615411565b1561517d5760028181548110614f0e57fe5b90600052602060002090600602016003016000815480929190600101919050555060068054809190600101614f4391906157b5565b5060405180604001604052803373ffffffffffffffffffffffffffffffffffffffff16815260200185815250600660016006805490500381548110614f8457fe5b906000526020600020906002020160008201518160000160006101000a81548173ffffffffffffffffffffffffffffffffffffffff021916908373ffffffffffffffffffffffffffffffffffffffff1602179055506020820151816001019080519060200190614ff592919061563b565b5090505060005460646002838154811061500b57fe5b906000526020600020906006020160030154028161502557fe5b049150816002828154811061503657fe5b90600052602060002090600602016002018190555060326002828154811061505a57fe5b906000526020600020906006020160020154111561517257615171846002838154811061508357fe5b906000526020600020906006020160040160009054906101000a900473ffffffffffffffffffffffffffffffffffffffff16600284815481106150c257fe5b90600052602060002090600602016001018054600181600116156101000203166002900480601f0160208091040260200160405190810160405280929190818152602001828054600181600116156101000203166002900480156151675780601f1061513c57610100808354040283529160200191615167565b820191906000526020600020905b81548152906001019060200180831161514a57829003601f168201915b5050505050614823565b5b60019250505061518f565b806001019050614ec8565b5060009150505b919050565b60008015156151f3600360003373ffffffffffffffffffffffffffffffffffffffff1673ffffffffffffffffffffffffffffffffffffffff16815260200190815260200160002060000160405180602001604052806000815250615411565b15151461524b576040517f08c379a00000000000000000000000000000000000000000000000000000000081526004018080602001828103825260448152602001806159d06044913960600191505060405180910390fd5b60008090505b600280549050811015615406576152856002828154811061526e57fe5b906000526020600020906006020160000184615411565b156153fb5760006001820190505b6002805490508110156153da57600282815481106152ad57fe5b9060005260206000209060060201600260018403815481106152cb57fe5b906000526020600020906006020160008201816000019080546001816001161561010002031660029004615300929190615550565b5060018201816001019080546001816001161561010002031660029004615328929190615550565b5060028201548160020155600382015481600301556004820160009054906101000a900473ffffffffffffffffffffffffffffffffffffffff168160040160006101000a81548173ffffffffffffffffffffffffffffffffffffffff021916908373ffffffffffffffffffffffffffffffffffffffff160217905550600582018160050190805460018160011615610100020316600290046153cb929190615550565b50905050806001019050615293565b5060028054809190600190036153f09190615609565b50600191505061540c565b806001019050615251565b50600090505b919050565b6000808390506060839050805182805460018160011615610100020316600290049050146154445760009250505061554a565b60008090505b828054600181600116156101000203166002900490508110156155425781818151811061547357fe5b602001015160f81c60f81b7effffffffffffffffffffffffffffffffffffffffffffffffffffffffffffff191683828154600181600116156101000203166002900481106154bd57fe5b8154600116156154dc5790600052602060002090602091828204019190065b9054901a7f0100000000000000000000000000000000000000000000000000000000000000027effffffffffffffffffffffffffffffffffffffffffffffffffffffffffffff191614615535576000935050505061554a565b808060010191505061544a565b506001925050505b92915050565b828054600181600116156101000203166002900490600052602060002090601f016020900481019282601f1061558957805485556155c6565b828001600101855582156155c657600052602060002091601f016020900482015b828111156155c55782548255916001019190600101906155aa565b5b5090506155d391906157e7565b5090565b81548183558181111561560457600402816004028360005260206000209182019101615603919061580c565b5b505050565b815481835581811115615636576006028160060283600052602060002091820191016156359190615886565b5b505050565b828054600181600116156101000203166002900490600052602060002090601f016020900481019282601f1061567c57805160ff19168380011785556156aa565b828001600101855582156156aa579182015b828111156156a957825182559160200191906001019061568e565b5b5090506156b791906157e7565b5090565b8154818355818111156156e8576002028160020283600052602060002091820191016156e7919061590c565b5b505050565b50805460018160011615610100020316600290046000825580601f106157135750615732565b601f01602090049060005260206000209081019061573191906157e7565b5b50565b828054600181600116156101000203166002900490600052602060002090601f016020900481019282601f1061577657805160ff19168380011785556157a4565b828001600101855582156157a4579182015b828111156157a3578251825591602001919060010190615788565b5b5090506157b191906157e7565b5090565b8154818355818111156157e2576002028160020283600052602060002091820191016157e19190615979565b5b505050565b61580991905b808211156158055760008160009055506001016157ed565b5090565b90565b61588391905b8082111561587f576000808201600061582b91906156ed565b6001820160006101000a81549073ffffffffffffffffffffffffffffffffffffffff021916905560028201600061586291906156ed565b6003820160006101000a81549060ff021916905550600401615812565b5090565b90565b61590991905b8082111561590557600080820160006158a591906156ed565b6001820160006158b591906156ed565b600282016000905560038201600090556004820160006101000a81549073ffffffffffffffffffffffffffffffffffffffff02191690556005820160006158fc91906156ed565b5060060161588c565b5090565b90565b61597691905b8082111561597257600080820160006101000a81549073ffffffffffffffffffffffffffffffffffffffff02191690556001820160006101000a81549073ffffffffffffffffffffffffffffffffffffffff021916905550600201615912565b5090565b90565b6159cc91905b808211156159c857600080820160006101000a81549073ffffffffffffffffffffffffffffffffffffffff02191690556001820160006159bf91906156ed565b5060020161597f565b5090565b9056fe4f6e6c7920612062616e6b2063616e20706572666f726d207468697320616374696f6e2c2073656e646572206e6f7420616d6f6e67206578697374696e672062616e6b734f6e6c792061646d696e2063616e20706572666f726d207468697320616374696f6ea265627a7a723058201c00f07cc178ce49712123c38b2c50b4e8d2766c0da40bc23cad82a1894893a764736f6c63430005090032",
  "source": "pragma solidity ^0.5.9;\n\n\ncontract KYC {\n    //to maintain a count of number of banks\n    uint256 bankCount;\n\n    //to store address of the user who deployed this smart contract\n    address adminAddress;\n\n    constructor() public {\n        adminAddress = msg.sender;\n        bankCount = 10;\n    }\n\n    // Struct customer\n    // uname - username of the customer\n    // dataHash - customer data\n    // rating - rating given to customer given based on regularity\n    // upvotes - number of upvotes recieved from banks\n    // bank - address of bank that validated the customer account\n    struct Customer {\n        string uname;\n        string dataHash;\n        uint256 rating;\n        uint256 upvotes;\n        address bank;\n        string password;\n    }\n\n    // Struct Organisation\n    // name - name of the bank/organisation\n    // ethAddress - ethereum address of the bank/organisation\n    // rating - rating based on number of valid/invalid verified accounts\n    // KYC_count - number of KYCs verified by the bank/organisation\n    //upvotes - to keep track of upvotes to a bank\n    struct Organisation {\n        string name;\n        address ethAddress;\n        uint256 KYC_count;\n        string regNumber;\n        uint256 rating;\n        uint256 upvotes;\n    }\n\n    // Struct Organisation\n    // uname - username of the customer\n    // bankAddress - ethereum address of the bank/organisation\n    // Flag determining if a bank is allowed to do the KYC\n    struct Request {\n        string uname;\n        address bankAddress;\n        string customerDataHash;\n        bool isAllowed;\n    }\n\n    //Sruct CustomerVotes is used to store votes made for a customer by a Banks\n    //senderBank - address bank that has upvoted\n    //receiverCustomer - uname of customer for whom upvote is done\n    struct CustomerVotes {\n        address senderBank;\n        string receiverCustomer;\n    }\n\n    //Struct BankVotes is used to store votes for a bank made by other Banks\n    //senderBank - address of bank that has upvoted\n    //receiverBank - address of bank that has received upvoted\n    struct BankVotes {\n        address senderBank;\n        address receiverBank;\n    }\n\n    // list of all customers\n    Customer[] public allCustomers;\n\n    // list of all Banks/Organisations\n    mapping(address => Organisation) public allBanks;\n\n    // list of all requests\n    Request[] public allRequests;\n\n    // list of all valid KYCs\n    Request[] public validKYCs;\n\n    //list of all customer votes\n    CustomerVotes[] public allCustomerVotes;\n\n    //list of all bank votes\n    BankVotes[] public allBankVotes;\n\n    //modifier to check if the user performing the action is admin\n    modifier onlyAdmin {\n        require(\n            adminAddress == msg.sender,\n            \"Only admin can perform this action\"\n        );\n        _;\n    }\n\n    //modifier to check if the user performing the action is among the list of banks\n    modifier onlyBank {\n        require(\n            stringsEqual(allBanks[msg.sender].name, \"\") == false,\n            \"Only a bank can perform this action, sender not among existing banks\"\n        );\n        _;\n    }\n\n    /*\n    function to add a bank to the blockchain\n    onlyAdmin modifier to check if user is admin\n    @param - name of bank,address of bank, registeration number of the bank\n    @returns - \"true\" if bank was added successfully and \"false\" if bank could not be added as it is already present\n    */\n    function addBank(\n        string memory name,\n        address bankAddress,\n        string memory bankRegNum\n    ) public payable onlyAdmin returns (bool) {\n        if (bankAddress == allBanks[bankAddress].ethAddress) {\n            return false;\n        } else {\n            allBanks[bankAddress].ethAddress = bankAddress;\n            allBanks[bankAddress].name = name;\n            allBanks[bankAddress].ethAddress = bankAddress;\n            allBanks[bankAddress].regNumber = bankRegNum;\n            allBanks[bankAddress].KYC_count = 0;\n            allBanks[bankAddress].upvotes = 0;\n            allBanks[bankAddress].rating = 0;\n            return true;\n        }\n    }\n\n    /*\n    function to remove a bank from the list of banks\n    modifier onlyAdmin to check if user calling the function is admin\n    @param - storage address of the bank to be deleted from the list of banks\n    @returns - \"true\" if bank is removed from the list and \"false\" if bank is not present in the list already\n    */\n    function removeBank(address bankAddress)\n        public\n        payable\n        onlyAdmin\n        returns (bool)\n    {\n        if (\n            allBanks[bankAddress].ethAddress !=\n            0x0000000000000000000000000000000000000000\n        ) {\n            delete allBanks[bankAddress];\n            return true;\n        } else {\n            return false;\n        }\n    }\n\n    // function to add request for KYC\n    // @Params - Username for the customer, bankAddress and customerDataHash\n    // Function is made payable as banks need to provide some currency to start of the KYC\n    //process\n    function addRequest(string memory Uname, string memory customerDataHash)\n        public\n        payable\n        onlyBank\n        returns (uint256)\n    {\n        address senderAddress = allBanks[msg.sender].ethAddress;\n        /*if (senderAddress != 0x0000000000000000000000000000000000000000) {*/\n            for (uint256 i = 0; i < allRequests.length; ++i) {\n                if (\n                    stringsEqual(allRequests[i].uname, Uname) &&\n                    stringsEqual(\n                        allRequests[i].customerDataHash,\n                        customerDataHash\n                    )\n                ) {\n                    return 0;\n                }\n            }\n            bool isAllowed = false;\n            if (allBanks[msg.sender].rating > 50) {\n                isAllowed = true;\n                allRequests.length++;\n                allRequests[allRequests.length - 1] = Request(\n                    Uname,\n                    senderAddress,\n                    customerDataHash,\n                    isAllowed\n                );\n                return 1;\n            }\n        /*}*/\n        return 0;\n    }\n\n    // function to remove request for KYC\n    // @Params - Username for the customer\n    // @return - This function returns 0 if removal is successful else this return 1 if the Username\n    //for the customer is not found\n    function removeRequest(string memory Uname, string memory customerDataHash)\n        public\n        payable\n        onlyBank\n        returns (int256)\n    {\n        /*address senderAddress = allBanks[msg.sender].ethAddress;\n        if (senderAddress != 0x0000000000000000000000000000000000000000) {*/\n            for (uint256 i = 0; i < allRequests.length; ++i) {\n                if (\n                    stringsEqual(allRequests[i].uname, Uname) &&\n                    stringsEqual(\n                        allRequests[i].customerDataHash,\n                        customerDataHash\n                    )\n                ) {\n                    for (uint256 j = i + 1; j < allRequests.length; ++j) {\n                        allRequests[i - 1] = allRequests[i];\n                    }\n                    allRequests.length--;\n                    return 1;\n                }\n            }\n       /* }\n        // throw error if uname not found\n        return 0;*/\n    }\n\n    // function to add request for KYC\n    // @Params - Username for the customer and bankAddress\n    // Function is made payable as banks need to provide some currency to start of the KYC\n    //process\n    function addKYC(\n        string memory Uname,\n        address bankAddress,\n        string memory customerDataHash\n    ) public payable onlyBank {\n        for (uint256 i = 0; i < validKYCs.length; ++i) {\n            if (\n                stringsEqual(validKYCs[i].uname, Uname) &&\n                validKYCs[i].bankAddress == bankAddress\n            ) {\n                return;\n            }\n        }\n        validKYCs.length++;\n        validKYCs[validKYCs.length - 1] = Request(\n            Uname,\n            bankAddress,\n            customerDataHash,\n            false\n        );\n        allBanks[bankAddress].KYC_count++;\n    }\n\n    // function to remove from valid KYC\n    // @Params - Username for the customer\n    // @return - This function returns 0 if removal is successful else this return 1 if the Username\n    //for the customer is not found\n    function removeKYC(string memory Uname)\n        public\n        payable\n        onlyBank\n        returns (int256)\n    {\n        for (uint256 i = 0; i < validKYCs.length; ++i) {\n            if (stringsEqual(validKYCs[i].uname, Uname)) {\n                for (uint256 j = i + 1; j < validKYCs.length; ++j) {\n                    validKYCs[i - 1] = validKYCs[i];\n                }\n                validKYCs.length--;\n                return 0;\n            }\n        }\n        // throw error if uname not found\n        return 1;\n    }\n\n    // function to compare two string value\n    // This is an internal fucntion to compare string values\n    // @Params - String a and String b are passed as Parameters\n    // @return - This function returns true if strings are matched and false if the strings are not\n    //matching\n    function stringsEqual(string storage _a, string memory _b)\n        internal\n        view\n        returns (bool)\n    {\n        bytes storage a = bytes(_a);\n        bytes memory b = bytes(_b);\n        if (a.length != b.length) return false;\n        // @todo unroll this loop\n        for (uint256 i = 0; i < a.length; i++) {\n            if (a[i] != b[i]) return false;\n        }\n        return true;\n    }\n\n    // function to add a customer profile to the database\n    // @params - Username and the hash of data for the customer are passed as\n    //parameters\n    // returns 1 if successful\n    // returns 0 if unsuccessful\n    function addCustomer(string memory Uname, string memory DataHash)\n        public\n        payable\n        onlyBank\n        returns (int256)\n    {\n        /*address senderAddress = allBanks[msg.sender].ethAddress;\n        f (senderAddress != 0x0000000000000000000000000000000000000000) {*/\n            // throw error if username already in use\n            for (uint256 i = 0; i < allCustomers.length; ++i) {\n                if (\n                    stringsEqual(allCustomers[i].uname, Uname) &&\n                    stringsEqual(allRequests[i].customerDataHash, DataHash)\n                ) return 0;\n            }\n            for (uint256 j = allRequests.length - 1; j >= 0; --j) {\n                if (\n                    allRequests[j].bankAddress ==\n                    allBanks[msg.sender].ethAddress &&\n                    allRequests[j].isAllowed == true\n                ) {\n                    allCustomers.length++;\n                    allCustomers[allCustomers.length - 1] = Customer(\n                        Uname,\n                        DataHash,\n                        0,\n                        0,\n                        msg.sender,\n                        \"0\"\n                    );\n                    return 1;\n                }\n            }\n       /* }*/\n        // throw error if there is overflow in uint\n        return 0;\n    }\n\n    // function to remove fraudulent customer profile from the database\n    // @params - customer's username is passed as parameter\n    // returns 0 if successful\n    // returns 1 if customer profile not in database\n    function removeCustomer(string memory Uname)\n        public\n        payable\n        onlyBank\n        returns (int256)\n    {\n        /*address senderAddress = allBanks[msg.sender].ethAddress;\n        if (senderAddress != 0x0000000000000000000000000000000000000000) {*/\n            for (uint256 i = 0; i < allCustomers.length; ++i) {\n                if (stringsEqual(allCustomers[i].uname, Uname)) {\n                    for (uint256 j = i + 1; j < allCustomers.length; ++j) {\n                        allCustomers[i - 1] = allCustomers[i];\n                    }\n                    allCustomers.length--;\n                    return 1;\n                }\n            }\n       /* }\n        // throw error if uname not found*/\n        return 0;\n    }\n\n    // function to modify a customer profile in database\n    // @params - Customer username and datahash are passed as Parameters\n    // returns 1 if successful\n    // returns 0 if customer profile not in database\n    function modifyCustomer(\n        string memory Uname,\n        string memory password,\n        string memory DataHash\n    ) public payable onlyBank returns (uint256) {\n        /*address senderAddress = allBanks[msg.sender].ethAddress;\n        if (senderAddress != 0x0000000000000000000000000000000000000000) {*/\n            for (uint256 i = 0; i < allCustomers.length; ++i) {\n                if (stringsEqual(allCustomers[i].uname, Uname)) {\n                    allCustomers[i].dataHash = DataHash;\n                    allCustomers[i].bank = msg.sender;\n                    allCustomers[i].password = password;\n                    allCustomers[i].rating = 0;\n                    allCustomers[i].upvotes = 0;\n                    return 1;\n                }\n                removeKYC(Uname);\n            }\n            return 0;\n        //}\n    }\n\n    // function to return customer profile data\n    // @params - Customer username is passed as the Parameters\n    // @return - This function return the cutomer datahash if found, else this function returns an error\n    //string.\n    function viewCustomer(string memory Uname, string memory password)\n        public\n        payable\n        onlyBank\n        returns (string memory)\n    {\n       /* address senderAddress = allBanks[msg.sender].ethAddress;\n        if (senderAddress != 0x0000000000000000000000000000000000000000) {*/\n            for (uint256 i = 0; i < allCustomers.length; ++i) {\n                if (\n                    stringsEqual(allCustomers[i].uname, Uname) &&\n                    (stringsEqual(allCustomers[i].password, password))\n                ) {\n                     allCustomers[i].dataHash;\n                }\n            }\n    // }\n        return \"Customer not found in database!\";\n    }\n\n\n    /*function to upvote a customer and update its rating\n    Uname- its the customer name for whom upvote is done\n    @return- it returns 1 if successfull and 0 if failure\n    */\n    function upvoteCustomer(string memory Uname)\n        public\n        payable\n        onlyBank\n        returns (uint256)\n    {\n        uint256 rating;\n        /*address senderBank = allBanks[msg.sender].ethAddress;\n        if (senderBank != 0x0000000000000000000000000000000000000000) {*/\n            for (uint256 i = 0; i < allCustomerVotes.length; ++i) {\n                if (\n                    (allCustomerVotes[i].senderBank == msg.sender) &&\n                    (stringsEqual(allCustomerVotes[i].receiverCustomer, Uname))\n                ) return 0;\n            }\n            for (uint256 j = 0; j < allCustomers.length; ++j) {\n                if (stringsEqual(allCustomers[j].uname, Uname)) {\n                    allCustomers[j].upvotes++;\n                    allCustomerVotes.length++;\n                    allCustomerVotes[allCustomerVotes.length -\n                        1] = CustomerVotes(msg.sender, Uname);\n                    rating = (allCustomers[j].upvotes * 100) / bankCount;\n                    allCustomers[j].rating = rating;\n                    if (allCustomers[j].rating > 50) {\n                        addKYC(\n                            Uname,\n                            allCustomers[j].bank,\n                            allCustomers[j].dataHash\n                        );\n                    }\n                    return 1;\n                }\n            }\n        /*}*/\n        return 0;\n    }\n\n    /*\n    Event to return all the KYC requests raised by a bank\n    */\n    event printKYCRequests(\n        string uname,\n        address bankAddress,\n        string customerDataHash,\n        bool flag\n    );\n\n    /*\n    function to return all the KYC requests made by a Bank\n    @param- address of the bank to return KYC requests\n    @return- all the requests raised by the Bank\n    */\n    function getBankRequests(address bankAddress) public payable onlyBank {\n        /*address bank = allBanks[msg.sender].ethAddress;\n        if (bank != 0x0000000000000000000000000000000000000000) {*/\n            for (uint256 i = 0; i < allRequests.length; ++i) {\n                if (allRequests[i].bankAddress == bankAddress) {\n                    emit printKYCRequests(\n                        allRequests[i].uname,\n                        allRequests[i].bankAddress,\n                        allRequests[i].customerDataHash,\n                        allRequests[i].isAllowed\n                    );\n                }\n            }\n        //}\n    }\n\n    /*\n        function to upvote a bank by another bank\n        @param- bankAddress, address of the bank to upvoteBank\n        @return- \"0\" when upvote is successful and \"1\" when upvote is not possible if the bank has already voted or does not exist in the blockchain\n    */\n    function upvoteBank(address bankAddress)\n        public\n        payable\n        onlyBank\n        returns (uint256)\n    {\n        address bank = allBanks[msg.sender].ethAddress;\n        address receiverBank = allBanks[bankAddress].ethAddress;\n        if (receiverBank == 0x0000000000000000000000000000000000000000 || receiverBank == bank) {\n            return 1;\n        }\n        if (bank != 0x0000000000000000000000000000000000000000) {\n            for (uint256 i = 0; i < allBankVotes.length; ++i) {\n                if (\n                    (allBankVotes[i].senderBank == msg.sender) &&\n                    (allBankVotes[i].receiverBank == bankAddress)\n                ) {\n                    return 1;\n                }\n            }\n            allBanks[receiverBank].upvotes++;\n            allBankVotes.length++;\n            allBankVotes[allBankVotes.length - 1] = BankVotes(\n                msg.sender,\n                bankAddress\n            );\n            uint256 rating = (allBanks[bankAddress].upvotes * 100) / bankCount;\n            allBanks[bankAddress].rating = rating;\n            return 0;\n        }\n        return 1;\n    }\n\n    /*\n    function to get Customer rating\n    @param - username(Uname) of the customer to fetch rating\n    @returns - a uint value as rating of the customer\n    */\n    function getCustomerRating(string memory Uname)\n        public\n        view\n        onlyBank\n        returns (uint256)\n    {\n       /* address bankAddress = allBanks[msg.sender].ethAddress;\n        if (bankAddress != 0x0000000000000000000000000000000000000000) {*/\n            for (uint256 i = 0; i < allCustomers.length; ++i) {\n                if (stringsEqual(allCustomers[i].uname, Uname)) {\n                    return allCustomers[i].rating;\n                }\n            }\n        /*}*/\n    }\n\n    /*\n    function to get Bank getCustomerRating\n    @param - address of the bank as bankAddress\n    @returns -  rating of the bank\n    */\n    function getBankRating(address bankAddress)\n        public\n        view\n        onlyBank\n        returns (uint256)\n    {\n        /*address senderAddress = allBanks[msg.sender].ethAddress;\n        if (senderAddress != 0x0000000000000000000000000000000000000000) {*/\n            return allBanks[bankAddress].rating;\n        /*}*/\n    }\n\n    /*\n    function to get the last bank that changed a cutomer's details\n    @param - uname as name of the customer for whom bank that made last change is to be accessed\n    @returns- the bank address that made changes to the Customer last\n    */\n    function getAccessHistory(string memory uname)\n        public\n        view\n        onlyBank\n        returns (address)\n    {\n        /*address senderAddress = allBanks[msg.sender].ethAddress;\n        if (senderAddress != 0x0000000000000000000000000000000000000000) {*/\n            for (uint256 i = 0; i < allCustomers.length; ++i) {\n                if (stringsEqual(allCustomers[i].uname, uname)) {\n                    return allCustomers[i].bank;\n                }\n            }\n        /*}*/\n    }\n\n    /*\n    function to set password for a customer by a bank so that only a group of selected banks can modify customer data\n    @params - username of the customer uname and password of the customer\n    @returns- \"true\" when password is successfully set and \"false\" when password is not set as bank does not exist in the blockchain\n    */\n    function setPassword(string memory uname, string memory password)\n        public\n        payable\n        onlyBank\n        returns (bool)\n    {\n        /*address senderAddress = allBanks[msg.sender].ethAddress;\n        if (senderAddress != 0x0000000000000000000000000000000000000000) {*/\n            for (uint256 i = 0; i < allCustomers.length; ++i) {\n                if (stringsEqual(allCustomers[i].uname, uname)) {\n                    allCustomers[i].password = password;\n                    return true;\n                }\n            }\n        /*}*/\n        return false;\n    }\n\n    /*\n    event to display bank details\n    */\n    event bankDetails(\n        string name,\n        address ethAddress,\n        uint256 KYC_count,\n        string regNumber,\n        uint256 rating\n    );\n\n    /*\n    function to get the bank details of a bank\n    @param - address of bank is passed\n    @returns - details of the bank whose address is passed\n    */\n    function getBankDetails(address bankAddress) public payable onlyBank {\n        /*address bank = allBanks[msg.sender].ethAddress;\n        if (bank != 0x0000000000000000000000000000000000000000) {*/\n            emit bankDetails(\n                allBanks[bankAddress].name,\n                allBanks[bankAddress].ethAddress,\n                allBanks[bankAddress].KYC_count,\n                allBanks[bankAddress].regNumber,\n                allBanks[bankAddress].rating\n            );\n        /*}*/\n    }\n}\n",
  "sourcePath": "/home/aiwalia/blockchainFinalProject/Phase - 3/KYC-SC/contracts/KYC.sol",
  "compiler": {
    "name": "solc",
    "version": "0.5.9+commit.e560f70d.Emscripten.clang"
  },
  "schemaVersion": "3.1.0",
  "updatedAt": "2020-05-18T15:39:38.217Z",
  "networkType": "ethereum",
  "devdoc": {
    "methods": {}
  },
  "userdoc": {
    "methods": {}
  }
}